:03000000020159A1
:0C015900787FE4F6D8FD7581240201A037
:0A027000C0F9A4B0999282F88090C2
:0600030002150000C1001F
:0902620012026B12026B12026B16
:04026B007F02DFFE31
:01026F00226C
:08027A007F247ED9DEFEDFFCCB
:010282002259
:100251005389F0438901E4F58A758C4CC28DD28CA7
:01026100227A
:03000B000200BD33
:1000BD00C0E0C0F0C083C082C0D075D000C000C009
:1000CD0001C002C003C004C005C006C007758A0088
:1000DD00758C4C0516E51670020515D39428E5159B
:1000ED0064809480404B7590FF75110075130075F9
:1000FD001000751200751400751D00751E00751920
:10010D0000751A00750E00750F00750A00750B004D
:10011D00751B00751C00751700751800750C0075A2
:10012D000D0075080075090012000E751500751685
:10013D0000D007D006D005D004D003D002D001D016
:0C014D0000D0D0D082D083D0F0D0E032BF
:10020D00EF90027093F580C2A0D2A0ED93547FF5CC
:10021D0080C2A1D2A1EB93F580C2A2D2A2E5249314
:07022D00F580C2A3D2A32259
:10000E00C290C2A712027AD2A712026212026B30FB
:10001E00A7030200BCC29120A7FDC29230A7FDC269
:10002E00931202348F111202348F131202348F1076
:10003E001202348F121202348F14E5146002C2942D
:10004E00E51125132510251265147062C295E51170
:10005E0075F00A84751D00F51EE51175F00A84AF62
:10006E00F0751B008F1CE51375F00A84751900F5E9
:10007E001AE51375F00A84AFF07517008F18E510A6
:10008E0075F00A84750E00F50FE51075F00A84AF51
:10009E00F0750C008F0DE51275F00A84750A00F5E7
:0F00AE000BE51275F00A84AFF07508008F092278
:10023400E4FEFD30A7FD120262EE25E0FEA2A7E473
:0C02440033420620A7FD0DBD08E9AF06FF
:01025000228B
:1001E500D2AFD2A9D2A812025130000EAF1EAD1C5B
:1001F500AB1A85182412020D80EFAF0FAD0DAB0BB6
:0802050085092412020D80E1BD
:100165000201E5E493A3F8E493A34003F68001F2CA
:1001750008DFF48029E493A3F85407240CC8C3339B
:10018500C4540F4420C8834004F456800146F6DF6A
:10019500E4800B0102040810204080900003E47EF7
:1001A500019360BCA3FF543F30E509541FFEE4935F
:1001B500A360010ECF54C025E060A840B8E493A326
:1001C500FAE493A3F8E493A3C8C582C8CAC583CA51
:1001D500F0A3C8C582C8CAC583CADFE9DEE780BE09
:0100090000F6
:00000001FF
