:0300000002015AA0
:0C015A00787FE4F6D8FD7581100200AB40
:0A016600C0F9A4B0999282F88090CD
:100149005389F0438902758AD2758CD2C28DD28CBB
:010159002283
:10012200EF90016693F580C2A0D2A0ED93547FF5C3
:1001320080C2A1D2A1EB93F580C2A2D2A2E5109314
:07014200F580C2A3D2A32245
:1000AB00120149E4F590D2AFD2A9D2A7D2A6D2A51C
:1000BB00D2A4C2A6D2A6C2A630A5FDD2A4E5907545
:1000CB00F0FF84FF7E007C017DF412000E8E098F01
:1000DB000A1C7D0A1200208D08AE09AF0A7C007D38
:1000EB000A1200208E098F0A7C007D0A1200208DD7
:1000FB000BAE09AF0A7C007D0A1200208E098F0A15
:10010B007C007D0A1200208D0C850810AB0BE4FFE0
:07011B00120122C2A4809B27
:03000B00020003ED
:03000300B2A7326F
:10000E00EF8DF0A4A8F0CF8CF0A428CE8DF0A42E06
:02001E00FE22C0
:10002000C2D5EC30E709B2D5E4C39DFDE49CFCEEFB
:1000300030E715B2D5E4C39FFFE49EFE120056C31D
:10004000E49DFDE49CFC800312005630D507C3E418
:060050009FFFE49EFE226A
:10005600BC000BBE0029EF8DF084FFADF022E4CC8E
:10006600F875F008EF2FFFEE33FEEC33FCEE9DEC57
:10007600984005FCEE9DFE0FD5F0E9E4CEFD22ED9D
:10008600F8F5F0EE8420D21CFEADF075F008EF2FE7
:10009600FFED33FD4007985006D5F0F222C398FDD8
:0500A6000FD5F0EA2275
:00000001FF
