:0300000002031BDD
:0C031B00787FE4F6D8FD758114020261C1
:0A032700C0F9A4B0999282F880900A
:1002F400EF90032793F580C2A0D2A0ED93547FF52D
:1003040080C2A1D2A1EB93F580C2A2D2A2E514933C
:07031400F580C2A3D2A32271
:1002610075C90275CCFB75CAFB75CDFF75CBFFD285
:10027100CAD2AFC2A6D2A6C2A6C29130A5FDC29271
:10028100D2A4ACB0E41201137BD77AFA79FA783FA1
:100291001200038F108E0F8D0E8C0DE5B024FF928E
:1002A100931201478E098F0A7C007D0A1201C88DC5
:1002B10008AE09AF0A7C007D0A1201C88E098F0AB7
:1002C1007C007D0A1201C88D0BAE09AF0A7C007D4E
:1002D1000A1201C88E098F0A7C007D0A1201C88D9D
:1002E1000C850814AB0BE4FF1202F4D291D292C236
:0302F100A4808066
:10000300EC4D6011E8497017ED33EC3304600DE4F7
:10001300FCFFFEFD22E933E8330470F80201B3125A
:10002300017E58046009E4CC24815006285009025B
:1000330001BD2840030201BAC0E0EB4A7044B98015
:1000430006D0E0FB0201A9EF4E701CBD8008EBFF58
:10005300EAFEE9FD80EBE98DF0A4FEE5F00200EC99
:10006300E9CDF9EAFEEBFFEF89F0A4FCE5F0CE89D8
:10007300F0A42EFFE435F0CD89F0A42DFEE435F095
:100083008067EF4E7005BD80D780C3EF8BF0A4ACC3
:10009300F0EE8BF0A42CFCE435F0F8EF8AF0A42CFE
:1000A300E5F038FCE433CB8DF0A42CFCE5F03BF811
:1000B300EE8AF0A42CFCE5F038F8E433CF89F0A401
:1000C3002CFCE5F038CF3400CE89F0A42FFFE5F007
:1000D3003EFEE433C98DF0A42EFEE5F039CD8AF05F
:1000E300A42FFFE5F03EFEE43DFD33D0E0FB5007D7
:1000F3000BBB000F0201BDEC2CFCEF33FFEE33FE14
:06010300ED33FD02019541
:1001090075F020800E75F010800575F0087D007E71
:10011900007F003392D530D5031201FEEC33401035
:10012900EF33FFEE33FEED33FDEC33FCD5F0ED227A
:0E013900E5F0247EA2D513CC92E7CDCEFF22B6
:10014700EDD2E7CD33EC3392D524814006E4FFFEB0
:10015700FDFC22FCE4CFCECDCC24E0501174FF800F
:10016700EDC3CC13CCCD13CDCE13CECF13CF0470AC
:07017700F030D5DE0201FEAD
:10017E00E9D2E7C933E833F892D5EDD2E7CD33ECC7
:07018E0033FC5002B2D52240
:10019500EC30E7100FBF000C0EBE00080DBD0004CB
:1001A5000BEB6014A2D5EB13FCED92E7FD2274FF77
:1001B500FCFDFEFF22E480F8A2D574FF13FC7D80D0
:0301C500E480EFE4
:1001C800C2D5EC30E709B2D5E4C39DFDE49CFCEE52
:1001D80030E715B2D5E4C39FFFE49EFE12020CC3BC
:1001E800E49DFDE49CFC800312020C30D507C3E4B7
:0601F8009FFFE49EFE22C1
:0E01FE00C3E49FFFE49EFEE49DFDE49CFC2212
:10020C00BC000BBE0029EF8DF084FFADF022E4CCD6
:10021C00F875F008EF2FFFEE33FEEC33FCEE9DEC9F
:10022C00984005FCEE9DFE0FD5F0E9E4CEFD22EDE5
:10023C00F8F5F0EE8420D21CFEADF075F008EF2F2F
:10024C00FFED33FD4007985006D5F0F222C398FD20
:05025C000FD5F0EA22BD
:00000001FF
