:0300000002000EED
:0C000E00787FE4F6D8FD75810D020055E6
:0C011F00020C0000020A000002080000B0
:1000FD005389F0438901758AFB758CFFC28DD28CB3
:01010D0022CF
:0B012C00EF1FAC0670011E4C70F622A5
:03000B0002009A56
:10009A00C0E0C0D0758AFB758CFF050DE50D7002B6
:1000AA00050C050BE50B7002050AE50DB50908E517
:1000BA000CB508036390FFE50DB4F40EE50CB4012A
:1000CA00096390FF750C00750D00E50B6419450A6C
:1000DA00700CF50AF50B0509E50970020508E50932
:1000EA00B4F30BE508B40106750800750901D0D010
:0300FA00D0E03221
:10010E001200FDD2AFD2A9C290C292C294C2968002
:01011E00FEE2
:10001A0002010EE493A3F8E493A34003F68001F2ED
:10002A0008DFF48029E493A3F85407240CC8C333E7
:10003A00C4540F4420C8834004F456800146F6DFB6
:10004A00E4800B010204081020408090011FE47E26
:10005A00019360BCA3FF543F30E509541FFEE493AB
:10006A00A360010ECF54C025E060A840B8E493A372
:10007A00FAE493A3F8E493A3C8C582C8CAC583CA9D
:10008A00F0A3C8C582C8CAC583CADFE9DEE780BE55
:01012B0000D3
:00000001FF
