:030000000200A853
:0C00A800787FE4F6D8FD7581170200EFA8
:0C024900C0F9A4B0999282F88090FFBF29
:09025F00010900010800010F0172
:0A025500EFD3940040031F80F7224E
:040269007F7CDFFEB9
:01026D00226E
:10022F00D2A67F08120255C2A67F50120255D2A63F
:0A023F007F051202557F14020255DC
:1001EE00E4FD7E08D2A67F01120255C2A6EDC3130E
:1001FE00FDD2A630A6034305807F04120255DEE42D
:04020E00AF057E00BA
:0102120022C9
:02021300AE0734
:100215007D08C2A6EE1392A67F05120255D2A6EE60
:0A022500C313FEDDED7F0402025555
:1000030012022F7FCC1202137F441202137F7D1240
:10001300025512022F7FCC1202137FBE120213125B
:1000230001EE8F091201EE8F08E508D3947F400E8D
:100033006309FFE508F404F508750F018003E4F58F
:100043000FE509C4540FFD7C00E50875F010A4AE5C
:10005300F02DF50CEC3EF50BE509540FFD75F00A98
:10006300A4FFE5F0C4F854F0C8EFC4540F48F50DED
:10007300ED75F064A4FFE5F0C4F854F0C8EFC45480
:100083000F4875F00A8485F00EAE0BAF0C7D0A1293
:1000930001348D12AE0BAF0C7C007D0A1201348F3C
:0500A30013850D112280
:10018900EF90024993F580C2A0120269D2A0ED93C3
:10019900F580C2A1120269D2A1EB93547FF580C206
:1001A900A2120269D2A2E51793F580C2A3120269CD
:0301B900D2A322AC
:1001BC00120003E51324FF9290E51224FF9291E5BF
:1001CC001124FF9292E50824FF9293E50924FF92F3
:1001DC0094E50F240AFF851117AB12AD1312018998
:0201EC0080CEC3
:1000B4000201BCE493A3F8E493A34003F68001F2A5
:1000C40008DFF48029E493A3F85407240CC8C3334D
:1000D400C4540F4420C8834004F456800146F6DF1C
:1000E400E4800B010204081020408090025FE47E4B
:1000F400019360BCA3FF543F30E509541FFEE49311
:10010400A360010ECF54C025E060A840B8E493A3D7
:10011400FAE493A3F8E493A3C8C582C8CAC583CA02
:10012400F0A3C8C582C8CAC583CADFE9DEE780BEBA
:010268000095
:10013400BC000BBE0029EF8DF084FFADF022E4CCAF
:10014400F875F008EF2FFFEE33FEEC33FCEE9DEC78
:10015400984005FCEE9DFE0FD5F0E9E4CEFD22EDBE
:10016400F8F5F0EE8420D21CFEADF075F008EF2F08
:10017400FFED33FD4007985006D5F0F222C398FDF9
:050184000FD5F0EA2296
:00000001FF
